:020000040800F2
:1000000078BE0020C51400083D1500083D15000805
:100010003D1500083D1500083D15000800000000D2
:100020000000000000000000000000008D620008D9
:100030003D1500080000000045640008A5640008A4
:100040003D1500083D1500083D1500083D15000848
:100050003D1500083D1500083D1500083D15000838
:100060003D1500083D1500083D1500083D15000828
:100070003D1500083D1500083D1500083D15000818
:100080003D1500083D150008A52D00083D15000888
:100090003D1500083D1500083D1500083D150008F8
:1000A0003D1500083D1500083D1500083D150008E8
:1000B000153D0008A53D0008293E00083D15000833
:1000C0003D1500083D1500083D1500083D150008C8
:1000D0003D1500083D1500083D1500083D150008B8
:1000E0003D1500083D1500083D1500083D150008A8
:1000F0003D1500083D1500083D1500083D15000898
:100100003D1500083D150008E93C00083D150008B4
:100110003D1500083D1500083D1500083D15000877
:100120003D1500083D1500083D1500083D15000867
:100130003D1500083D1500083D1500083D15000857
:100140003D1500083D1500083D1500083D15000847
:100150003D1500083D1500083D1500082D1D00083F
:100160003D1500083D1500083D1500083D15000827
:100170003D1500083D1500083D1500083D15000817
:100180003D1500083D15000880B500AF044806F095
:10019000D1FA044806F0CEFA034806F0CBFA80BD47
:1001A00090020020EC0200203402002090B58DB0B7
:1001B00004AF244802F0A4FC234B3C460FCB84E858
:1001C0000F003B460FCB06F025FD204B07F1100436
:1001D0000FCB84E80F0007F110030FCB06F01AFDD8
:1001E000032300930023019300230293002303932E
:1001F000174818498222002303F0FEFE03230093D0
:100200000023019300230293002303931248134910
:100210008222002303F0F0FE01200021032205F0DA
:1002200035FB02460E4B1A6001200021032205F027
:100230002DFB02460B4B1A60072006F06BFE24379D
:10024000BD4690BD08020020809D0008909D0008DA
:10025000690200086C9D0008B9030008789D000839
:100260002C1000203010002080B586B000AF7860E0
:100270000023FB750023BB7500233B6100F050FE9B
:10028000F860464B1B68184600214FF0FF320023F0
:1002900005F044FD0023BB754BE0BB7D404A9B004D
:1002A00013445A68BB7D01333D499B000B445B6896
:1002B0001A44BB7D02333A499B000B445B681344EC
:1002C0003B613B695B083B61354BD3F804223B69DA
:1002D0001A44334BC3F80422FB7D012B10D0022BB0
:1002E0001AD0002B00D021E03A6940F6D8639A4238
:1002F00005D92B4BBA7D1A700123FB7516E015E06A
:100300003A6940F627239A4205D8254BBA7D5A70A0
:100310000223FB750AE009E03A6940F6D8639A4285
:1003200003D91F4BBA7D9A70FFE700BFBB7D023334
:10033000BB75BB7D772BB0D9194BD3F80422194B71
:10034000A3FB02135A09164BC3F80422144BD3F82B
:10035000042240F6B8339A4216D9FB7D002B11DBFC
:10036000012B02DD022B04D00CE00F4B0F4A1A6068
:1003700009E00F4B1B68184600210022002305F0FE
:10038000E1FA00E000BF7CE7FB681B68184600212B
:100390000022002305F0D6FA73E700BF2C100020DE
:1003A00000000020898888883810002000009642CC
:1003B0003010002000000000B0B586B000AF7860BB
:1003C00000F0AEFD7861844B1B68184600214FF0A9
:1003D000FF32002305F0A2FC00233B614FF0000335
:1003E000FB607E4B5B78002B0CD07C4B5B78132B37
:1003F00008D87B4B7B4A1A6000233B617A4B3A69F1
:100400001A60CCE0754B5B78403B3B61774B1B68D7
:10041000184608F091FA04460D46386908F07AFA51
:1004200002460B461046194661A3D3E9002308F0A3
:10043000D7FA02460B46104619465FA3D3E90023BC
:1004400008F0CEFA02460B462046294608F016F977
:1004500002460B461046194608F0F4FC0246634B70
:100460001A60614B1B683A69D31A5B00184608F0A2
:1004700051FA02460B46104619464DA3D3E9002314
:1004800008F0D8FB02460B461046194608F0DAFC85
:100490000346FB60544B3A691A60386908F03AFA2F
:1004A00002460B461046194645A3D3E9002308F03F
:1004B00097FA02460B4614461D46386908F02AFA98
:1004C00002460B462046294608F08AFA02460B46A9
:1004D00014461D46386908F01DFA02460B461046C0
:1004E000194639A3D3E9002308F07AFA02460B46ED
:1004F0002046294608F0C2F802460B461046194627
:1005000033A3D3E9002308F0B9F802460B4614469A
:100510001D46364B1B68184608F00EFA02460B467D
:100520002046294608F0AAF802460B4614461D4606
:10053000F86808F001FA02460B462046294608F002
:100540009DF802460B461046194608F07BFC024611
:10055000234B1A60224B93ED007ADFED257AB4EE3F
:10056000E77AF1EE10FA03DD1D4B224A1A600CE027
:100570001B4B93ED007ADFED207AB4EEE77AF1EED3
:1005800010FA02D5164B1D4A1A60154BD3ED007AAE
:10059000FCEEE77A17EE903A184603F05BFA7B69B7
:1005A0001B68184600210022002305F0CBF90AE75A
:1005B0007B14AE47E17A943F9A9999999999B93FFA
:1005C000604DAB112AB061BFF650B20720A6F13FD3
:1005D0000000000000C05240301000200000002049
:1005E00038100020000096423C10002040100020EF
:1005F0000000C8420000C8420000484200004842D3
:1006000080B483B000AF7860064B1B78013B7A68FA
:10061000126805499B000B445A600C37BD465DF8D3
:10062000047B7047341000200000002080B500AF2C
:10063000064B93F83132002B06D1082006F06AFCF5
:10064000024B012283F8312280BD00BF0000002050
:1006500080B582B000AF1F4B93F83132002B35D0FC
:100660001C4B03F502730FCB02F0FEFA1A4B1B78FA
:10067000802B25D100237B60082006F04BFD4FF036
:1006800080401021002207F089FE134B00221A70CF
:10069000104B002283F83122104B1A683B1D104684
:1006A000194605F0D1FA7B68002B08D00C4B4FF0AF
:1006B00080521A60BFF34F8FBFF36F8F06E005E0E3
:1006C000054B1B780133DAB2034B1A700837BD466D
:1006D00080BD00BF00000020341000202C1000203E
:1006E00004ED00E080B582B000AF0B463A600246F0
:1006F000FA71BB71FB79002B0AD0012B09D1064B93
:100700005B7838680521054A03F0C6F800BF00E0B1
:1007100000BF0837BD4680BD00000020A09D000836
:1007200080B582B000AF0B463A600246FA71BB71E9
:10073000FB79002B0FD0012B0ED1094BD3ED007AA2
:10074000FDEEE77A17EE903A38680A21054A03F081
:10075000A3F800BF00E000BF0837BD4680BD00BF62
:1007600038100020A09D000880B582B000AF0B4675
:100770003A600246FA71BB71FB79002B0BD0012B5A
:100780000AD1074BD3F8043238680A21054A03F02E
:1007900083F800BF00E000BF0837BD4680BD00BF42
:1007A00000000020A09D000880B500AF0F4805F0B4
:1007B000C1FF0F4805F0BEFF0E4805F0BBFF0E4815
:1007C00005F0B8FF0D4805F0B5FF0D4805F0B2FF84
:1007D0000C4805F0AFFF0C4805F0ACFF0B4805F0E6
:1007E000A9FF0B4805F0A6FF80BD00BFC005002093
:1007F0001C06002098030020F40300205004002071
:10080000AC040020080500206405002078060020C4
:10081000D406002080B594B004AF002387F83F30A1
:1008200075E03B1D00221A60043300221A60043375
:1008300000221A60043300221A60043397F83F2024
:10084000584913469B001344DB000B4418331B79B3
:100850003B7197F83F20534913469B001344DB003C
:100860000B4420331B68BB6097F83F204D4913466B
:100870009B001344DB000B4420339B88FB603B1D33
:100880000FCB06F0C7F907F1140300221A600433F6
:1008900000221A60043300221A60043300221A6016
:1008A000043397F83F203F4913469B001344DB0075
:1008B0000B4418335B793B7597F83F203949134651
:1008C0009B001344DB000B4420331B68BB6197F88B
:1008D0003F20344913469B001344DB000B44203374
:1008E0009B88FB6107F114030FCB06F093F997F88F
:1008F0003F2013469B001344DB002A4A134418464A
:1009000002F0FEF897F83F30013387F83F3097F850
:100910003F30012B85D9244A07F1240307CA83E815
:10092000070007F1240393E8070000F00BFE1F4ABD
:1009300007F1300307CA83E8070007F1300393E8A3
:10094000070000F0FFFD0223009300230193002322
:10095000029300230393164816498222002303F0D2
:100960004BFB0223009300230193002302930023F7
:100970000393114811498222002303F03DFB01201B
:100980000021032204F082FF02460D4B1A60012071
:100990000021032204F07AFF02460A4B1A60403716
:1009A000BD4680BD4803002094A00008A0A0000818
:1009B0001D0A00087CA00008890A000888A0000819
:1009C000441000204810002080B500AF0D20012108
:1009D00006F054F80B4B1B7F184606F09BFA094BA8
:1009E00093F84530184606F095FA064B5B7F18469B
:1009F00006F090FB034B93F84430184606F08AFB50
:100A000080BD00BF4803002080B400AF024B1846F1
:100A1000BD465DF8047B70474410002080B500AFF0
:100A2000144B1B68184600214FF0FF32002305F0DD
:100A300075F9114B1B785A1CD1B20F4A11701A4626
:100A40000E4913469B001344DB000B440FCB02F00E
:100A50000BF9094B1B78022B0BD1074B00221A70A4
:100A6000074B1B68184600210022002304F06AFF90
:100A7000D6E7D5E7441000204C10002048030020A2
:100A8000481000200000000080B500AF1C4B1B6820
:100A9000184600214FF0FF32002305F03FF9194BB3
:100AA0005B69184607F026FF02460B4612A1D1E902
:100AB000000108F0BFF802460B461046194608F040
:100AC000A1F902460F4B9A610E4BDB6B184607F0FB
:100AD00011FF02460B4608A1D1E9000108F0AAF86F
:100AE00002460B461046194608F08CF90246054BA3
:100AF0001A64CBE7AFF30080E10B9368E7F59D4103
:100B0000481000204803002080B500AF344B1B780C
:100B1000032B49D801A252F823F000BF2D0B000887
:100B2000430B0008650B0008870B00082D480021C7
:100B300007F05EF82A4B1B780133DAB2284B1A70A3
:100B40004DE0284807F062F80246274B1A60254816
:100B5000002107F04DF8224B1B780133DAB2204B0D
:100B60001A703CE01F4807F051F802461E4B5A60CD
:100B70001C48002107F03CF8194B1B780133DAB20E
:100B8000174B1A702BE0174807F040F80246164B37
:100B90009A601448002107F02BF8114B1B780133A1
:100BA000DAB20F4B1A701AE00D4B00221A700D4882
:100BB00007F02CF802460C4BDA600A48002107F0D7
:100BC00017F8094B1A68084B5B681A44064B9B6878
:100BD0001A44054BDB681A44044B5A6100BF80BDC0
:100BE0004D100020000C0040501000204803002051
:100BF00080B500AF344B1B78032B49D801A252F8C3
:100C000023F000BF150C00082B0C00084D0C000849
:100C10006F0C00082C4B1B780133DAB22A4B1A7088
:100C20002A48002106F0E4FF4DE0284806F0EEFFD8
:100C30000246274B1A602548002106F0D9FF224BB7
:100C40001B780133DAB2204B1A703CE01F4806F0E3
:100C5000DDFF02461E4B5A601C48002106F0C8FF0B
:100C6000194B1B780133DAB2174B1A702BE0174877
:100C700006F0CCFF0246164B9A601448002106F09D
:100C8000B7FF114B1B780133DAB20F4B1A701AE021
:100C90000D4B00221A700D4806F0B8FF02460C4BAF
:100CA000DA600A48002106F0A3FF094B1A68084BD6
:100CB0005B681A44064B9B681A44054BDB681A4470
:100CC000044BDA6300BF80BD6010002000080040C4
:100CD000641000204803002080B582B000AF0B46AE
:100CE0003A600246FA71BB71FB79002B11D0012BDF
:100CF00000D00FE0BA79094913469B001344DB008A
:100D00000B4418331B6838680A21054A02F0C4FDF9
:100D100000E000BF0837BD4680BD00BF480300208B
:100D2000ACA0000880B582B000AF0B463A60024626
:100D3000FA71BB71BB79022B00D92DE0FB79002B36
:100D400002D0012B19D027E0BB79002B0AD0144B1D
:100D50001846396801F010FC10231846396801F074
:100D60008FFC19E00F4B1846396801F005FC04238D
:100D70001846396801F084FC0EE0BA790A49134636
:100D80009B001344DB000B4410331B6838680A21B6
:100D9000064A02F081FD00BF0837BD4680BD00BF96
:100DA000000002400008024048030020B4A00008F0
:100DB00080B582B000AF0B463A600246FA71BB7153
:100DC000FB79002B02D0012B19D020E0BA79114910
:100DD0001346DB009B1A9B000B441B6818463968BE
:100DE00001F0CAFBBA790B491346DB009B1A9B0042
:100DF0000B449B881846396801F042FC07E0064B1B
:100E00005B6938680F21054A02F046FD00BF0837CC
:100E1000BD4680BDA49D000848030020BCA000087A
:100E200080B582B000AF0B463A600246FA71BB71E2
:100E3000FB79002B02D0012B19D020E0BA7911499F
:100E40001346DB009B1A9B000B441B68184639684D
:100E500001F092FBBA790B491346DB009B1A9B0009
:100E60000B449B881846396801F00AFC07E0064BE2
:100E7000DB6B38680F21054A02F00EFD00BF083712
:100E8000BD4680BDA49D000848030020BCA000080A
:100E900080B500AF014805F04DFC80BD4C07002037
:100EA00080B584B004AF184801F02AFE01230093F6
:100EB0000023019300230293002303931348144952
:100EC0008222002303F098F801230093002301936A
:100ED00000230293002303930E480F49822200232C
:100EE00003F08AF801200021032204F0CFFC02461F
:100EF0000A4B5A6001200021032204F0C7FC02467D
:100F0000064B9A60BD4680BD3C070020350F0008A7
:100F10009CA30008A90F0008ACA30008300700201C
:100F200080B400AF024B1846BD465DF8047B7047A5
:100F30003807002080B582B000AF7860074B9B680F
:100F4000184600214FF0FF32002304F0E7FE034B68
:100F50000C330FCB01F088FEF0E700BF3007002014
:100F600080B584B000AF78600023FB607B681A68AE
:100F70000B4B1A600A4B5A6807F10C0310461946CE
:100F800004F062FEFB68002B07D0064B4FF0805246
:100F90001A60BFF34F8FBFF36F8F1037BD4680BD10
:100FA0003007002004ED00E080B584B000AF786029
:100FB000FFF72AFDF8603C4B5B68184600214FF0B4
:100FC000FF32002304F0AAFE374B1A6840F2A363F5
:100FD0009A4216D9344B1A6840F2BB639A4210D831
:100FE0000620012105F04AFD0520012105F046FDFE
:100FF0000420012105F042FD0320012105F03EFD02
:1010000049E0294B1A6840F28A639A4216D9264B66
:101010001A6840F2A2639A4210D80620002105F017
:101020002DFD0520012105F029FD0420012105F0F9
:1010300025FD0320012105F021FD2CE01A4B1A6843
:1010400040F271639A4216D9174B1A6840F28963CD
:101050009A4210D80620002105F010FD052000213D
:1010600005F00CFD0420012105F008FD03200121FD
:1010700005F004FD0FE00620002105F0FFFC05202F
:10108000002105F0FBFC0420002105F0F7FC032003
:10109000012105F0F3FCFB681B68184600210022C3
:1010A000002304F04FFC86E73007002080B582B0B3
:1010B00000AF0B463A600246FA71BB71FB79002B18
:1010C00002D0012B19D020E0BA7911491346DB0078
:1010D0009B1A9B000B441B681846396801F04CFAB8
:1010E000BA790B491346DB009B1A9B000B449B8883
:1010F0001846396801F0C4FA07E0064B1B683868E7
:101100000A21054A02F0C8FB00BF0837BD4680BD72
:10111000C4A0000830070020B8A3000880B58AB03A
:1011200000AF7860396000237B6200233B620023BC
:10113000FB610023BB617B681B8A9BB27B627B6A7D
:1011400023F440537B623B68DB887A6A13437B62FB
:101150007B6A9AB27B681A827B689B899BB27B62AE
:101160007B6A23F4B05323F00C037B623B689A88BC
:101170003B681B8913439AB23B685B8913439BB25C
:101180007A6A13437B627B6A9AB27B689A817B6836
:101190009B8A9BB27B627B6A23F440737B623B68D1
:1011A0009B897A6A13437B627B6A9AB27B689A82D4
:1011B00007F10803184600F091FA7A68314B9A4219
:1011C00003D07A68304B9A4202D17B693B6201E0DE
:1011D0003B693B627B689B899BB29BB21BB2002B35
:1011E0000CDA3A6A13469B0013449A001A443B688F
:1011F0001B685B00B2FBF3F3FB610BE03A6A13463A
:101200009B0013449A001A443B681B689B00B2FB86
:10121000F3F3FB61FA691D4BA3FB02135B091B018E
:101220007B627B6A1B09642202FB03F3FA69D31A0F
:10123000BB617B689B899BB29BB21BB2002B0DDA12
:10124000BB69DB0003F13202104BA3FB02135B0905
:1012500003F007037A6A13437B620CE0BB691B014E
:1012600003F13202094BA3FB02135B0903F00F03E6
:101270007A6A13437B627B6A9AB27B681A81283749
:10128000BD4680BD00100140001401401F85EB5198
:1012900080B483B000AF78600B46FB70FB78002B06
:1012A00008D07B689B899BB243F400539AB27B6859
:1012B0009A8107E07B689B899BB223F400539AB222
:1012C0007B689A810C37BD465DF8047B704700BF90
:1012D00080B483B000AF78600B467B807B88C3F31B
:1012E00008039AB27B689A800C37BD465DF8047B90
:1012F000704700BF80B483B000AF78607B689B8884
:101300009BB2C3F308039BB218460C37BD465DF889
:10131000047B704780B487B000AF786013460A46FC
:101320007A807B7000233B610023FB600023BB605D
:1013300000237B617B687B617B88DBB25B09DBB26E
:101340003B617B8803F01F03FB60FB68012202FA0C
:1013500003F3BB603B69012B03D17B690C337B61D9
:1013600009E03B69022B03D17B6910337B6102E00A
:101370007B6914337B617B78002B06D07B697A69AB
:101380001168BA680A431A6006E07B697A691168D5
:10139000BA68D2430A401A601C37BD465DF8047B28
:1013A000704700BF80B485B000AF78600B467B808B
:1013B0000023FB737B681B889AB27B8813409BB227
:1013C000002B02D00123FB7301E00023FB73FB7BA6
:1013D00018461437BD465DF8047B704780B487B06B
:1013E00000AF78600B467B800023FB6000237B61AD
:1013F0000023BB600023FB747B88DBB25B09DBB29C
:10140000BB607B8803F01F037B617B69012202FACA
:1014100003F37B61BB68012B06D17B689B899BB280
:101420007A6913407B610FE0BB68022B06D17B68B1
:101430001B8A9BB27A6913407B6105E07B689B8ABB
:101440009BB27A6913407B617B881B0A9BB2FB606D
:10145000FB68012202FA03F3FB607B681B889BB2E6
:10146000FA681340FB607B69002B05D0FB68002BFA
:1014700002D00123FB7401E00023FB74FB7C1846BF
:101480001C37BD465DF8047B704700BF80B485B053
:1014900000AF78600B467B800023FB810023BB817B
:1014A0007B881B0AFB81FB89012202FA03F3BB81C3
:1014B000BB89DB439AB27B681A801437BD465DF85E
:1014C000047B704780B483B000AF164B7B60164B33
:1014D0003B6007E03B681A1D3A607A68111D79602D
:1014E00012681A603A68114B9A42F3D310481149B6
:1014F0004FF000028842B8BF40F8042BFFF6FAAF65
:10150000DFF83400016841F47001016003F0D6FF98
:1015100004F01EF900F0ACF80C37BD465DF8047B12
:10152000704700BFB0C20008000000202C1000204F
:101530002C10002074B6002088ED00E080B400AFCD
:10154000FEE700BF80B590B000AF3B1D83E8070009
:101550003B7987F83F30BB68BB6301237B63012382
:101560003B6397F83F203B491346DB009B1A9B00E7
:101570000B4410331B689BB2BB820023FB82012308
:101580003B8300237B830023BB83334B1A68334B9D
:10159000A3FB0213DB0C013B7B63BB6B5B00013BDA
:1015A0003B6397F83F3087F820303B6B7B627B6B67
:1015B000BB62FB68FB6207F120030FCB02F068FA05
:1015C00097F83F2023491346DB009B1A9B000B44EE
:1015D00018331B681A4607F114031046194606F023
:1015E000EFFD97F83F201B491346DB009B1A9B0039
:1015F0000B4410331B79002B18D097F83F20154966
:101600001346DB009B1A9B000B441833196897F8AC
:101610003F2010481346DB009B1A9B000344103305
:101620001B68084619460C2202F000FB97F83F2081
:1016300008491346DB009B1A9B000B4418331B68B8
:101640001846012106F0EEFA002318464037BD4641
:1016500080BD00BFBCA30008F80B002083DE1B4345
:1016600080B400AF30BFBD465DF8047B704700BF5B
:1016700080B586B000AF4FF4A8437B6100233B6187
:101680004FF48003FB604FF0E063BB607A693B6915
:101690001A43FB681A43BB6813437B6000F0ECFEFF
:1016A00002F0C4F9FEF782FD03F07CFCFFF7F8FBC3
:1016B000FFF7B0F800BF00BF0A2005F07DF9034630
:1016C000002BF9D0FFF780F904F06EFF02F064FD03
:1016D000002318461837BD4680BD00BF80B489B0CE
:1016E00000AF78600023BB6100237B610023FB61B6
:1016F00002233B610023FB600223BB60484B9B68D5
:1017000003F00C03BB61BB69042B07D0082B09D085
:10171000002B3FD17B68434A1A603FE07B68424A16
:101720001A603BE03E4B5B6803F480039B0DFB605B
:101730003B4B5B6803F03F03BB60FB68002B0DD0A5
:10174000394ABB68B2FBF3F2354B596847F6C073B0
:101750000B409B0903FB02F3FB610CE0314ABB68C1
:10176000B2FBF3F22E4B596847F6C0730B409B094E
:1017700003FB02F3FB612A4B5B6803F440331B0C51
:1017800001335B003B61FA693B69B2FBF3F27B68B2
:101790001A6003E07B68234A1A6000BF204B9B68F5
:1017A00003F0F003BB61BB691B09BB611F4ABB6946
:1017B00013441B78DBB27B617B681A687B69DA4073
:1017C0007B685A60164B9B6803F4E053BB61BB69AE
:1017D0009B0ABB61154ABB6913441B78DBB27B6172
:1017E0007B685A687B69DA407B689A600C4B9B681F
:1017F00003F46043BB61BB695B0BBB610B4ABB6914
:1018000013441B78DBB27B617B685A687B69DA40E2
:101810007B68DA602437BD465DF8047B704700BF03
:10182000003802400024F40000127A00A8070020CB
:1018300080B483B000AF78600B46FB70FB78002B60
:1018400006D0094B084A116B7A680A431A6306E00E
:10185000054B054A116B7A68D2430A401A630C376C
:10186000BD465DF8047B70470038024080B483B009
:1018700000AF78600B46FB70FB78002B06D0094B5D
:10188000084A116C7A680A431A6406E0054B054A57
:10189000116C7A68D2430A401A640C37BD465DF871
:1018A000047B70470038024080B483B000AF78609A
:1018B0000B46FB70FB78002B06D0094B084A516C95
:1018C0007A680A435A6406E0054B054A516C7A6807
:1018D000D2430A405A640C37BD465DF8047B70471A
:1018E0000038024080B483B000AF78600B46FB70D4
:1018F000FB78002B06D0094B084A116A7A680A4324
:101900001A6206E0054B054A116A7A68D2430A401A
:101910001A620C37BD465DF8047B70470038024000
:1019200080B483B000AF78600B46FB70FB78002B6F
:1019300006D0094B084A516A7A680A435A6206E09F
:10194000054B054A516A7A68D2430A405A620C37FD
:10195000BD465DF8047B70470038024080B588B012
:1019600000AF0B463A600246FA71BB710023FB7769
:1019700007F1080300221A60043300221A600433BE
:1019800000221A60043300221A6004333B68BB60F3
:10199000FA7996491346DB009B1A9B000B441833D7
:1019A0001A68934B9A4225D0FA7990491346DB0086
:1019B0009B1A9B000B4418331A688E4B9A4219D01D
:1019C000FA798A491346DB009B1A9B000B441833B3
:1019D0001A68894B9A420DD0FA7984491346DB0084
:1019E0009B1A9B000B4418331A68844B9A4201D00F
:1019F0000523F6E0FA797D491346DB009B1A9B002C
:101A00000B4418331B68184600F000FA03461A46C8
:101A10007B4913469B001344DB000B441B78012BCE
:101A200001D10623DDE0FB79002B4BD0BB79002BE5
:101A300048D00C237B82FA796C491346DB009B1A51
:101A40009B000B4418331968BA7968481346DB00C9
:101A50009B1A9B00034418331B68994201D0022350
:101A6000BFE0FA7961491346DB009B1A9B000B44E7
:101A700018331B68184600F0C9F903461A46604936
:101A800013469B001344DB000B440833FA799A7029
:101A9000BA7956491346DB009B1A9B000B44183356
:101AA0001B68184600F0B2F903461A46544913461B
:101AB0009B001344DB000B440833BA795A70FB795E
:101AC000FB7711E0FB79002B04D0FB79FB7708232F
:101AD0007B8209E0BB79002B04D0BB79FB77042320
:101AE0007B8201E003237CE0FA7F40491346DB0060
:101AF0009B1A9B000B4418331B68184600F04EF9E4
:101B0000FA7F3A491346DB009B1A9B000B441833BB
:101B10001B681A4607F1080310461946FFF7FEFA3C
:101B2000FA7F32491346DB009B1A9B000B441833A3
:101B30001B6818460121FFF7ABFBBB79002B1DD0BA
:101B4000BA792A491346DB009B1A9B000B441033D9
:101B50001B79012B12D147233B760E237B76012381
:101B6000BB760123FB7607F11803184604F0C6FE86
:101B7000224840F225510122FFF7CCFBFA7F1B4996
:101B80001346DB009B1A9B000B4418331B68184656
:101B900000F03CF903461A46194913469B001344CA
:101BA000DB000B4401221A70FA7F10491346DB0058
:101BB0009B1A9B000B4418331B68184600F026F94B
:101BC00003461A460E4913469B001344DB000B44A0
:101BD00004333A681A600B480A21012203F010F915
:101BE000002318462037BD4680BD00BF40A6000830
:101BF0000010014000440040004800400014014033
:101C000074100020F810002080B584B000AF396057
:101C100013460246FA71BB800023FB8134E01E4B61
:101C2000BB6002E0BB68013BBB60FA791B4913460D
:101C3000DB009B1A9B000B4418331B68184680215D
:101C4000FFF7B0FB0346012B02D0BB68002BE9D1A4
:101C5000BB68002B01D104231AE0FA790F4913461F
:101C6000DB009B1A9B000B4418331B681A46FB8948
:101C7000591CF98139680B441B7810461946FFF747
:101C800027FBBB88013BBB80BB88002BC7D100234F
:101C900018461037BD4680BDA086010040A600084A
:101CA00080B586B000AFF860B9601346FB800023B2
:101CB000FB82F86800F0AAF803461A4613469B0018
:101CC0001344DB0003F10802174B13440433184696
:101CD00003F05CF903467B7519E0F86800F096F8AC
:101CE00003461A4613469B001344DB0003F1080227
:101CF0000D4B13441A1DFB8AB9680B441046194654
:101D000003F0ACF803467B75FB8A0133FB82FA8A49
:101D1000FB889A4202D07B7D002BDED1FB8A1846DD
:101D20001837BD4680BD00BF7410002080B582B05A
:101D300000AF00237B60174840F22531FFF74EFBD0
:101D40000346012B0DD17B6843F4497343F0010333
:101D50007B601048FFF7CEFA0E4840F22531FFF7BE
:101D600095FB0C4840F22551FFF738FB0346012B49
:101D70000DD10848FFF7BEFA0346DBB20648194604
:101D800003F0BCF8034840F22551FFF77FFB08370A
:101D9000BD4680BD00140140F810002080B582B01F
:101DA00000AF78607B68154A934218D0134A93427B
:101DB00003D8134A93420CD01CE0124A934203D03A
:101DC000114A934211D015E010200121FFF76CFD5C
:101DD00010E04FF400300121FFF766FD0AE04FF4F8
:101DE00080200121FFF760FD04E020200121FFF7A2
:101DF0005BFD00BF0837BD4680BD00BF0048004006
:101E000000440040001001400014014080B483B041
:101E100000AF78607B68104A934211D00E4A93421B
:101E200003D80E4A934209D00EE00D4A934203D0E4
:101E30000C4A934206D007E0002306E0012304E0A9
:101E4000022302E0032300E0052318460C37BD46B9
:101E50005DF8047B704700BF00480040004400402C
:101E6000001001400014014080B586B004AF00238B
:101E70007B6000F0BBFA134B1B68002B0FD00223D2
:101E800000930023019300230293002303930E4841
:101E90000E494FF48272002302F0AEF878607B683E
:101EA000002B09D14FF0140383F31188BFF36F8F18
:101EB000BFF34F8F3B60FEE77B6818460837BD468F
:101EC00080BD00BF4411002055200008C4A80008B0
:101ED00080B586B000AFF860B9607A603B60BB68DF
:101EE000002B02D100237B611CE02C2004F036FE85
:101EF00078617B69002B15D000F078FA7B69FA686D
:101F00001A607B69BA689A617B697A68DA617B6971
:101F10003A681A627B693A6A5A627B6904331846E6
:101F200003F03AFABB68002B09D14FF0140383F396
:101F30001188BFF36F8FBFF34F8F3B61FEE77B6963
:101F400018461837BD4680BD80B588B000AFF86030
:101F5000B9607A603B600023FB611D4B1B68002B5E
:101F600030D0BB683B617B687B61FB68BB61BB6851
:101F7000052B1CDC02F02AFE0346022B0BD1144B6E
:101F80001A6807F1100310461946BA6A002303F0D5
:101F9000D9FCF86116E00E4B1A6807F110031046E1
:101FA00019460022002303F0CDFCF8610AE0084B3B
:101FB0001A6807F11003104619463A68002303F027
:101FC000B7FDF861FB6918462037BD4680BD00BFEC
:101FD0004411002080B588B002AF786039601C4B96
:101FE0001B68DB68DB687B617B690433184603F0A0
:101FF0003BFA7B69DB69012B22D17B699A697B689B
:102000001344786919463A687B6800F0B7F80346CC
:10201000012B15D100230093786900217A680023F1
:10202000FFF792FF38613B69002B09D14FF0140391
:1020300083F31188BFF36F8FBFF34F8FFB60FEE711
:102040007B695B6A786998471837BD4680BD00BFD9
:102050003C11002080B584B000AF786007F1080320
:10206000184600F047F8F860BB68F868194600F0B9
:1020700003F800F0C5F8F1E780B584B000AF7860F0
:10208000396002F0CFF807F10803184600F056F85F
:10209000F860BB68002B24D13B68002B0AD17A681A
:1020A000FB689A4206D802F0CBF87868F968FFF727
:1020B00091FF18E00D4B1A687968FB68CB1A10463F
:1020C000194604F067F802F0BBF80346002B0AD16A
:1020D000074B4FF080521A60BFF34F8FBFF36F8FE3
:1020E00001E002F0ADF81037BD4680BD441100207C
:1020F00004ED00E080B485B000AF78600E4B1B6843
:102100001B68002B14BF00230123DBB21A467B6837
:102110001A607B681B68002B05D1074B1B68DB68C6
:102120001B68FB6001E00023FB60FB681846143766
:10213000BD465DF8047B70473C11002080B584B03B
:1021400000AF786002F010F9F8600B4B1B68FA687A
:102150009A4205D200F0EAF87B6801221A6002E098
:102160007B6800221A60044BFA681A60FB68184604
:102170001037BD4680BD00BF4811002080B586B035
:1021800000AFF860B9607A603B6000237B61FB6858
:10219000BA685A60FB68FA681A61BA687B689A4242
:1021A00012D87A683B68D21AFB689B699A4202D3BC
:1021B00001237B611BE0104B1A68FB680433104657
:1021C000194603F019F912E07A683B689A4206D280
:1021D000BA683B689A4202D301237B6107E0074B50
:1021E0001A68FB6804331046194603F005F97B6949
:1021F00018461837BD4680BD401100203C11002014
:1022000080B58CB002AF7EE0BB68002B7BDB3B6906
:102210007B627B6A5B69002B04D07B6A04331846BF
:1022200003F022F93B1D1846FFF788FF3862BB68B0
:10223000092B67D801A252F823F000BF65220008DD
:10224000652200086522000805230008C522000851
:10225000FD22000865220008652200080523000809
:10226000C5220008FA687B6A9B691A44FB68786A91
:1022700011463A6AFFF782FF0346012B21D17B6AA0
:102280005B6A786A98477B6ADB69012B19D1FA6827
:102290007B6A9B69134400220092786A00211A46E7
:1022A0000023FFF751FEF861FB69002B09D14FF0C5
:1022B000140383F31188BFF36F8FBFF34F8FBB619C
:1022C000FEE720E0FA687B6A9A617B6A9B69002BD3
:1022D00009D14FF0140383F31188BFF36F8FBFF35D
:1022E0004F8F7B61FEE77B6A9A693B6A1344786A89
:1022F00019463A6A3B6AFFF741FF04E0786A04F046
:1023000073FC00E000BF084B1A6807F10803104691
:1023100019460022002303F001FD0346002B7FF441
:1023200073AF2837BD4680BD4411002080B588B00A
:1023300002AF44E02B4B1B68DB681B687B61294BB9
:102340001B68DB68DB683B613B690433184603F0BC
:102350008BF83B695B6A386998473B69DB69012BFD
:102360002DD13B699A697B691344FB60FA687B69EC
:102370009A420ED93B69FA685A603B693A691A6118
:10238000184B1A683B6904331046194603F034F8B9
:1023900015E000230093386900217A690023FFF7D4
:1023A000D3FDB860BB68002B09D14FF0140383F351
:1023B0001188BFF36F8FBFF34F8F3B60FEE7094B70
:1023C0001B681B68002BB5D1064B1B687B60064B56
:1023D0001A68044B1A60044B7A681A601837BD46B5
:1023E00080BD00BF3C1100204011002080B582B0AC
:1023F00000AF03F0D3FF1A4B1B68002B2BD11948F9
:1024000002F0AAFF184802F0A7FF184B154A1A60FD
:10241000174B154A1A6005200C21002203F036FAEA
:1024200002460F4B1A600E4B1B68002B09D14FF070
:10243000140383F31188BFF36F8FBFF34F8F7B605B
:10244000FEE7074B1B68002B05D0054B1B681846A1
:10245000084903F077FE03F0CFFF0837BD4680BD83
:102460004411002014110020281100203C110020EC
:1024700040110020CCA8000890B587B000AF03F051
:102480001DF803F04FF84FF4407004F025FA0123D3
:10249000FB7569E0FA7D37491346DB009B1A9B0008
:1024A0000B441B683B61FA7D32491346DB009B1AE3
:1024B0009B000B449B887B60FA7D2E491346DB0012
:1024C0009B1A9B000B449B793B72FA7D294913466A
:1024D000DB009B1A9B000B4408335B78BB72FA7DD0
:1024E00024491346DB009B1A9B000B4408339B785E
:1024F000FB72FA7D1F491346DB009B1A9B000B44BD
:1025000008331B787B72386900F0CCF93B7A022BD8
:1025100022D1FA7D17491346DB009B1A9B000B441E
:102520009B88184600F078FAF860FA7D1149134646
:10253000DB009B1A9B000B441868FB6899B2FA7D7C
:102540000C4C1346DB009B1A9B0023440C331B6886
:10255000DBB21A4602F0BAFE3B1D3869194602F09A
:10256000D7FDFB7D0133FB75FB7D162B92D91C3704
:10257000BD4690BDD4A8000880B483B000AF786099
:1025800039607B682C4A934238D02B4A934210D84A
:102590002A4A934223D0294A934203D8284A934295
:1025A00018D044E0274A93421ED0274A934220D0B5
:1025B0003DE0264A93422BD0244A934203D8244A32
:1025C000934220D033E0234A934226D0224A9342BA
:1025D00028D02CE03B68214A1068186027E03B684F
:1025E0001F4A1068186022E03B681E4A1068186095
:1025F0001DE03B681C4A1068186018E03B681B4AE5
:102600001068186013E03B68194A106818600EE003
:102610003B68184A1068186009E03B68164A106861
:10262000186004E03B68154A1068186000BF0C375A
:10263000BD465DF8047B7047001002400004024074
:102640000000024000080240000C02400018024056
:1026500000140240001C02400020024058AB000859
:102660005CAB000860AB000864AB000868AB000816
:102670006CAB000870AB000874AB000878AB0008C6
:1026800090B583B000AF03463960FB80FB88802B98
:102690007FD0802B11DC082B53D0082B06DC022BBB
:1026A0003BD0042B43D0012B2DD0D8E0202B5CD085
:1026B000402B64D0102B4ED0D1E0B3F5006F00F06A
:1026C0009280B3F5006F09DCB3F5007F75D0B3F5E8
:1026D000806F7CD0B3F5807F65D0C0E0B3F5005F3C
:1026E00000F09980B3F5005F04DCB3F5805F00F083
:1026F0008680B4E0B3F5804F00F09980B3F5004FC9
:1027000000F0A180ABE03C68204606F0B9FF03462C
:102710002344544A12881A80A1E03C68204606F0FF
:10272000AFFF03462344504A12881A8097E03C6862
:10273000204606F0A5FF034623444C4A12881A801F
:102740008DE03C68204606F09BFF03462344484A40
:1027500012881A8083E03C68204606F091FF034609
:102760002344444A12881A8079E03C68204606F0E7
:1027700087FF03462344404A12881A806FE03C6872
:10278000204606F07DFF034623443C4A12881A8007
:1027900065E03C68204606F073FF03462344384A50
:1027A00012881A805BE03C68204606F069FF034609
:1027B0002344344A12881A8051E03C68204606F0CF
:1027C0005FFF03462344304A12881A8047E03C6882
:1027D000204606F055FF034623442C4A1188927880
:1027E00019809A703BE03C68204606F049FF03469A
:1027F0002344274A1188927819809A702FE03C6808
:10280000204606F03DFF03462344224A1188927871
:1028100019809A7023E03C68204606F031FF034699
:1028200023441D4A1188927819809A7017E03C68F9
:10283000204606F025FF03462344184A1188927863
:1028400019809A700BE03C68204606F019FF034699
:102850002344134A1188927819809A7000BF0C376C
:10286000BD4690BD7CAB000880AB000884AB00087F
:1028700088AB00088CAB000890AB000894AB000854
:1028800098AB00089CAB0008A0AB0008A4AB000804
:10289000A8AB0008ACAB0008B0AB0008B4AB0008B4
:1028A000B8AB000880B582B000AF78607B68504A52
:1028B000934258D04E4A934210D84E4A93422BD05E
:1028C0004C4A934203D84C4A934218D08CE04B4A6E
:1028D00093422ED04A4A934238D085E0494A9342E7
:1028E0005BD0484A934203D8474A934248D07BE0A2
:1028F000464A93425ED0464A934268D074E0454BC4
:102900001B78002B07D101200121FEF791FF414BDD
:1029100001221A7068E067E03E4B5B78002B07D11C
:1029200002200121FEF784FF3A4B01225A705BE03E
:102930005AE0384B9B78002B07D104200121FEF789
:1029400077FF344B01229A704EE04DE0314BDB783B
:10295000002B07D108200121FEF76AFF2D4B012231
:10296000DA7041E040E02B4B1B79002B07D110209F
:102970000121FEF75DFF274B01221A7134E033E09D
:10298000244B5B79002B07D120200121FEF750FF5B
:10299000204B01225A7127E026E01E4B9B79002B29
:1029A00007D140200121FEF743FF1A4B01229A7103
:1029B0001AE019E0174BDB79002B07D180200121A9
:1029C000FEF736FF134B0122DA710DE00CE0114BDC
:1029D0001B7A002B07D14FF480700121FEF728FFEE
:1029E0000C4B01221A7200BF0837BD4680BD00BFE4
:1029F00000100240000402400000024000080240B3
:102A0000000C02400018024000140240001C02406A
:102A1000002002404C11002080B485B000AF034676
:102A2000FB80FB88802B49D0802B11DC082B39D010
:102A3000082B06DC022B2FD0042B30D0012B28D002
:102A400057E0202B34D0402B35D0102B2DD050E028
:102A5000B3F5006F3ED0B3F5006F09DCB3F5007F2E
:102A600032D0B3F5806F32D0B3F5807F29D040E00B
:102A7000B3F5005F34D0B3F5005F03DCB3F5805FDE
:102A80002BD036E0B3F5804F2DD0B3F5004F2DD0CD
:102A90002FE00023FB602CE00123FB6029E00223F0
:102AA000FB6026E00323FB6023E00423FB6020E0BF
:102AB0000523FB601DE00623FB601AE00723FB6093
:102AC00017E00823FB6014E00923FB6011E00A23F0
:102AD000FB600EE00B23FB600BE00C23FB6008E0C7
:102AE0000D23FB6005E00E23FB6002E00F23FB607B
:102AF00000BFFB6818461437BD465DF8047B70477D
:102B000080B58EB000AF78607B681B781A4650495C
:102B10001346DB009B1A9B000B4418331B687B6336
:102B20004C4B1B785A1CD1B24A4A11707A68137206
:102B30007B681B7A1A467B685968474B43F822101A
:102B40007B681B7A7A68D268434916339B000B4432
:102B50005A607A6B414B9A4207D07A6B404B9A424B
:102B600001D1012302E0022300E000233D4AD35CAF
:102B7000002B01D0022367E007F12403184600F080
:102B80006DFA07F10C03184600F022FA00237B626D
:102B90000023BB620023FB6200233B630023FB6036
:102BA00000233B7400237B7400237B610023BB6103
:102BB0000023FB61012387F8203007F12403184626
:102BC00000F024FA7A6B254B9A4209D07A6B244B99
:102BD0009A4202D14FF4007304E04FF4806301E0A5
:102BE0004FF4807318460121FEF75EFE07F10C03D7
:102BF000786B194600F098F912233B720C237B7214
:102C00000123BB720123FB72786B40F20521012284
:102C100000F038FB07F10803184603F06FFE786BED
:102C2000012100F031FA7A6B0C4B9A4207D07A6B93
:102C30000B4B9A4201D1012302E0022300E0002362
:102C4000084A0121D154002318463837BD4680BDBB
:102C5000BCAB0008C81100205C110020002001401E
:102C6000002101405811002090B587B000AF3C46CC
:102C700084E80F003B781A4634491346DB009B1A60
:102C80009B000B4418331B687B617A69304B9A4276
:102C900007D07A692F4B9A4201D1012302E0022327
:102CA00000E000232C4AD35C002B01D1032348E031
:102CB0002A4B5B7C002B29D0294B1B68032B20D887
:102CC000264B012283F85820254B1B683A7823496C
:102CD00001331B010B441A71214B1B683A7A1F49BF
:102CE0001B010B4418331A711D4B1B681B4A1344FC
:102CF000012283F854201A4B1B685A1C184B1A6087
:102D000002E0174B00221A6004231AE03A7A134BB0
:102D10001A74124B01225A743B781A460B49134617
:102D2000DB009B1A9B000B4410331B68DBB27869F5
:102D300019460122002300F0C3F9786900F084FAF3
:102D4000002318461C37BD4690BD00BFBCAB000831
:102D50000020014000210140581100205C1100209A
:102D6000CC11002080B483B000AF0023FB7100239E
:102D7000FB710BE0FB790A4A134493F85430002BA3
:102D800001D0FB7906E0FB790133FB71FB79032B62
:102D9000F0D9FF2318460C37BD465DF8047B704719
:102DA0005C11002080B582B000AF00237B60344806
:102DB00042F21A0100F08EFA0346002B05D030488B
:102DC00042F21A0100F0B4FA57E02D4840F2052112
:102DD00000F080FA0346002B4FD0294840F205212D
:102DE00000F0A6FA264800F03FFA03463B60254B68
:102DF00000225A74234B1B7C1A46224B53F8223074
:102E0000002B07D01F4B1B7C1A461E4B53F8223059
:102E10003A681A601B4B1B7C1A4A16339B001344FA
:102E20005B68002B09D0174B1B7C164A16339B009E
:102E300013445B683A4610469847124B93F8583053
:102E4000002B1AD0FFF78EFF03467B607B68FF2BB9
:102E50000FD00C4A7B6801331B01134404330FCBA2
:102E6000FFF702FF074A7B681344503300221A71B0
:102E700003E0044B002283F858200837BD4680BD8C
:102E8000002001405C11002080B500AF194B1B6889
:102E90005A1C184B1A60174B1B68B3F1FF3F03D144
:102EA000144B00221A601BE01AE0134B1B685A698E
:102EB000114B1A60104B1B685A680E4B1B689A42E4
:102EC0000ED80D4B1B6800225A700B4B1B681A461C
:102ED0000A4B9A4204D0084B1B68184600F010F8C1
:102EE000054B1B685B69002BDFD1034B034A1A605B
:102EF00080BD00BFD0110020B8070020D4110020F1
:102F000080B483B000AF78607B685B697A681269CF
:102F10001A617B681B697A6852695A610C37BD4631
:102F20005DF8047B704700BF80B485B000AF786067
:102F300039600023FB600023FB727B685B68FB60E9
:102F4000FB6823F0407323F48073FB603B681B79BC
:102F50001A023B681B681343FA681343FB607B68E3
:102F6000FA685A607B689B68FB60FA68174B1340ED
:102F7000FB603B681A693B68DB681A433B689B68E7
:102F80001A433B685B795B001343FA681343FB60A9
:102F90007B68FA689A607B68DB6AFB60FB6823F4F5
:102FA0007003FB603B681B7D013BDAB2FB7A134385
:102FB000FB72FB7A1B05FA681343FB607B68FA68B7
:102FC000DA621437BD465DF8047B7047FDF7FFC039
:102FD00080B483B000AF78607B6800221A607B68A1
:102FE00000221A717B6800225A717B6800229A6065
:102FF0007B680022DA607B6800221A617B6801220C
:103000001A750C37BD465DF8047B704780B485B0F7
:1030100000AF78600023FB600E4B5B68FB60FA68D2
:103020000D4B1340FB607B681A687B685B681A4332
:103030007B689B681A437B68DB681343FA68134319
:10304000FB60044BFA685A601437BD465DF8047B98
:10305000704700BF00230140E030FCFF80B483B024
:1030600000AF78607B6800221A607B6800225A609B
:103070007B6800229A607B680022DA600C37BD46CC
:103080005DF8047B704700BF80B483B000AF786008
:103090000B46FB70FB78002B06D07B689B6843F0E7
:1030A00001027B689A6005E07B689B6823F001025F
:1030B0007B689A600C37BD465DF8047B704700BFA3
:1030C00080B485B000AF7860F970BA707B7000236F
:1030D000FB600023BB60FB78092B23D97B68DB688E
:1030E000FB60FB78A3F10A0213465B00134407223E
:1030F00002FA03F3BB60BB68DB43FA681340FB6072
:103100007978FB78A3F10A0213465B00134401FAB5
:1031100003F3BB60FA68BB681343FB607B68FA6823
:10312000DA601EE07B681B69FB60FA7813465B007F
:103130001344072202FA03F3BB60BB68DB43FA685F
:103140001340FB607978FA7813465B00134401FA68
:1031500003F3BB60FA68BB681343FB607B68FA68E3
:103160001A61BB78062B21D87B685B6BFB60BB7850
:103170005A1E13469B0013441F2202FA03F3BB603E
:10318000BB68DB43FA681340FB60F978BB785A1ED2
:1031900013469B00134401FA03F3BB60FA68BB6853
:1031A0001343FB607B68FA685A6347E0BB780C2BDB
:1031B00021D87B681B6BFB60BB78DA1F13469B0032
:1031C00013441F2202FA03F3BB60BB68DB43FA68B7
:1031D0001340FB60F978BB78DA1F13469B00134459
:1031E00001FA03F3BB60FA68BB681343FB607B68BA
:1031F000FA681A6322E07B68DB6AFB60BB78A3F1A4
:103200000D0213469B0013441F2202FA03F3BB6016
:10321000BB68DB43FA681340FB60F978BB78A3F125
:103220000D0213469B00134401FA03F3BB60FA68D6
:10323000BB681343FB607B68FA68DA621437BD46EB
:103240005DF8047B704700BF80B483B000AF786046
:103250007B689B6843F080427B689A600C37BD4670
:103260005DF8047B704700BF80B483B000AF786026
:103270007B68DB6C9BB218460C37BD465DF8047B5F
:10328000704700BF80B485B000AF786013460A462F
:103290007A807B700023FB607B88DBB2FB60FB687D
:1032A000012202FA03F3FB607B78002B06D07B68D7
:1032B0005A68FB681A437B685A6006E07B685A6864
:1032C000FB68DB431A407B685A601437BD465DF8E3
:1032D000047B704780B487B000AF78600B467B807A
:1032E0000023FB7500233B610023FB607B881B0AE6
:1032F0009BB23B617B685A687B88DBB2012101FA93
:1033000003F31340FB607B681A683B691340002B92
:1033100005D0FB68002B02D00123FB7501E00023E0
:10332000FB75FB7D18461C37BD465DF8047B704776
:1033300080B485B000AF78600B467B800023FB73C0
:103340007B881B0A9BB2FB73FB7BDA437B681A60AA
:103350001437BD465DF8047B704700BF80B582B06E
:1033600000AF0346FB71FB1D012019460122FEF749
:103370004BFC0837BD4680BD80B483B000AF786099
:103380000B46FB707B68FA781A70012318460C37DD
:10339000BD465DF8047B704780B485B000AF7860AF
:1033A00039600023FB600AE07B685A1C7A603A6847
:1033B000511C396012781A70FB680133FB603B685E
:1033C0001B78002BF0D1FB6818461437BD465DF81A
:1033D000047B704780B586B000AFF8607A603B60D0
:1033E0000B46FB7200237B617B68013B7B603B6883
:1033F000092B10D93A681E4BA3FB0213DB08FA7A9B
:10340000F86811467A68FFF7E5FF78617B69FA682A
:103410001344FB6011E00DE0FB7AF8681946FFF7F2
:10342000ABFFFB680133FB607B6901337B617B6829
:10343000013B7B607B68002BEEDC39680C4BA3FB07
:103440000123DA0813469B0013445B00CA1AD3B267
:103450003033DBB2F8681946FFF78EFF03467A690E
:1034600013447B617B6918461837BD4680BD00BF99
:10347000CDCCCCCC80B586B000AFF8607A603B6034
:103480000B46FB7200237B613B68002B03DA3B6831
:103490005B423B6101E03B683B617B68013B7B60D9
:1034A0003B69092B21D93B68002B0DDA3A692F4B78
:1034B000A3FB0213DB085B42FA7AF86811467A68CC
:1034C000FFF7D8FF78610BE03A69284BA3FB0213A2
:1034D000DB08FA7AF86811467A68FFF7CBFF786163
:1034E0007B69FA681344FB6026E03B68002B03DA33
:1034F0007B68013B7B600EE00DE0FB7AF8681946C3
:10350000FFF73AFFFB680133FB607B6901337B61A6
:103510007B68013B7B607B68002BEEDC3B68002B0B
:103520000ADAF8682D21FFF727FF03467A6913446A
:103530007B61FB680133FB6039690C4BA3FB012302
:10354000DA0813469B0013445B00CA1AD3B2303327
:10355000DBB2F8681946FFF70FFF03467A69134498
:103560007B617B6918461837BD4680BDCDCCCCCC7D
:1035700080B588B002AFF8607A600A46FA72BB7212
:1035800000237B617B68013B7B603B6A1B09002B4E
:1035900012D03B6A1909FA7ABB7A0091F868114691
:1035A0007A68FFF7E5FF03467A6913447B617B691C
:1035B000FA681344FB6011E00DE0FB7AF8681946E5
:1035C000FFF7DAFEFB680133FB607B6901337B6147
:1035D0007B68013B7B607B68002BEEDC3B6A03F081
:1035E0000F03092B0BD83B6ADBB203F00F03DBB2EE
:1035F0003033DBB2F8681946FFF7BEFE19E0BB7A3C
:10360000002B0BD03B6ADBB203F00F03DBB2373386
:10361000DBB2F8681946FFF7AFFE0AE03B6ADBB29F
:1036200003F00F03DBB25733DBB2F8681946FFF73C
:10363000A3FE7B6901337B617B6918461837BD4661
:1036400080BD00BF80B58AB002AFF860B9607A6013
:103650003B600023BB6100237B61FB68002B03D030
:10366000FB6800221A70F8E0F7E07B681B78252BD6
:103670000BD0FB685A1CFA607A68511C796012788A
:103680001A707B6901337B61E7E07B6801331B784B
:10369000252B0BD1FB685A1CFA6025221A707B6817
:1036A00002337B607B6901337B61D6E02023FB77AB
:1036B0000023BB777B6801337B607B681B78302BF2
:1036C00005D13023FB777B6801337B600FE00EE090
:1036D000BB7F1A46920013445B00DAB27B681B780A
:1036E0001344DBB2303BBB777B6801337B607B6884
:1036F0001B782F2B03D97B681B78392BE8D9BA7F2D
:103700007B6913441A46BB689A4205D9BB68DAB292
:103710007B69DBB2D31ABB777B681B78583B202BC5
:1037200000F28D8001A252F823F000BFF9370008A3
:103730003F3800083F3800083F3800083F3800088D
:103740003F3800083F3800083F3800083F3800087D
:103750003F3800083F38000829380008B137000812
:103760003F3800083F3800083F3800083F3800085D
:10377000B13700083F3800083F3800083F380008DC
:103780003F3800083F3800083F3800083F3800083D
:103790003F3800083F380008153800083F38000857
:1037A000C73700083F3800083F380008DD370008F9
:1037B000BA7F3B68191D39601B68F97FF868FFF70D
:1037C00059FEB8613EE0BA7F3B68191D39601B683D
:1037D000F97FF868FFF7FEFDB86133E0BA7F3B6818
:1037E000191D39601968FB7F0091F868194600239C
:1037F000FFF7BEFEB86125E0BA7F3B68191D39604E
:103800001968FB7F0091F86819460123FFF7B0FEA5
:10381000B86117E03B681A1D3A601B68F8681946E2
:10382000FFF7BAFDB8610DE03B681A1D3A601B68EE
:10383000DBB2F8681946FFF79FFDB86102E04FF070
:10384000FF3325E07B6801337B60BB69FA68134472
:10385000FB607A69BB6913447B617B681B78002B32
:1038600004D07A69BB689A42FFF4FFAE7A69BB68FC
:103870009A4203D2FB6800221A7008E0FB68013B01
:10388000FB60FB6800221A707B69013B7B617B69EE
:1038900018462037BD4680BD0CB480B584B000AF5B
:1038A0007860396007F11C03BB6078683968BA69D1
:1038B000BB68FFF7C7FEF860FB6818461037BD46C7
:1038C000BDE8804002B0704780B584B000AFF860BA
:1038D000B9607A60F8686421BA687B68FFF7B2FE65
:1038E000034618461037BD4680BD00BFB0B5A6B030
:1038F00000AFF860B9607A60144B07F110041D4600
:103900000FCD0FC40FCD0FC42B68236007F1340314
:103910001846B9687A68FFF7D7FF0346632B09DDBD
:103920000B4B1B68DB6807F110021046194600F0CC
:1039300059F8FEE707F134031846F96800F052F829
:10394000034618469837BD46B0BD00BFC4B0000856
:10395000E80B002080B582B000AF78603960064B7C
:103960001B689B68184679683A68FFF7BFFF0346F3
:1039700018460837BD4680BDE80B00200FB480B55F
:1039800082B000AF07F114033B6038693968FFF774
:10399000E1FF78607B6818460837BD46BDE8804087
:1039A00004B0704780B582B000AF786039600C4BCE
:1039B0001B689A683B689A4205D0094B1B68DA6815
:1039C0003B689A4206D17B68DBB21846FFF7C6FC1B
:1039D0007B6801E04FF0FF3318460837BD4680BDD5
:1039E000E80B002080B584B000AF78603960002318
:1039F000FB6012E07B681B7818463968FFF7D2FF3E
:103A00000346B3F1FF3F02D14FF0FF330AE0FB68FA
:103A10000133FB607B6801337B607B681B78002B84
:103A2000E8D1FB6818461037BD4680BD90B585B01B
:103A300000AF074B3C460FCB84E80F003B460FCB53
:103A400003F0E8F8092003F065FA1437BD4690BD8D
:103A5000C0B3000880B586B000AF7860092003F0DD
:103A600059FB092003F014FC09233B7244F6206340
:103A7000FB607B683B6100237B6107F108030FCB90
:103A800003F0C8F8092003F045FA1837BD4680BD99
:103A900090B58BB000AF3C4684E80F003B781A46E7
:103AA00054491346DB009B1A9B000B4418331B68D8
:103AB0007B627B683B62BB68FB617A6A4E4B9A42D1
:103AC0004AD07B6AB3F1804F43D07A6A4B4B9A421B
:103AD0003DD07A6A4A4B9A4237D07A6A494B9A4229
:103AE00031D07A6A484B9A422BD07A6A474B9A4235
:103AF00025D07A6A464B9A421FD07A6A454B9A4241
:103B000019D07A6A444B9A4213D07A6A434B9A424C
:103B10000DD07A6A424B9A4207D07A6A414B9A4258
:103B200001D10C2316E00D2314E00B2312E00A232D
:103B300010E009230EE008230CE007230AE0062327
:103B400008E0052306E0042304E0032302E0022347
:103B500000E001231A4600E000223B781946254880
:103B60000B46DB005B1A9B00034410331B68002BE1
:103B70001DD03B7819461F480B46DB005B1A9B00A3
:103B8000034410331B68042B0FD03B7819461948A7
:103B90000B46DB005B1A9B00034410331B68082BA9
:103BA00001D1022304E0032302E0012300E000230B
:103BB000F8681D499200134441F8230007F11003EF
:103BC000184603F0FBFF786A00F072F9FB699BB2BC
:103BD0003B823B6A7B6100237B8200233B837A6AC2
:103BE00007F110031046194603F07EFF2C37BD463F
:103BF00090BD00BFD0B300080000014000040040A9
:103C000000080040000C004000100040001400407C
:103C100000040140004001400044014000480140D0
:103C200000180040001C0040EC11002080B586B058
:103C300000AFF860B9601346FB7100237B61FB792C
:103C40007B750123BB750123FB75FB68B3F1804FC6
:103C50001FD0FA681F4B9A4219D0FA681E4B9A423D
:103C600013D0FA681D4B9A420DD0FA681C4B9A4249
:103C700007D0FA681B4B9A4201D12E230AE0002399
:103C800008E0372306E0322304E01E2302E01D2370
:103C900000E01C233B7507F11403184602F02EFECA
:103CA000FA68BB68002B0BD0BB68042B06D0BB683E
:103CB000082B01D1082304E0102302E0042300E0D4
:103CC000022310461946012204F068FB1837BD464E
:103CD00080BD00BF0004004000080040000C004010
:103CE000001400400004014080B500AF07480821DF
:103CF00004F078FB0346012B06D10448082104F0A8
:103D00009BFB034B9B6C984780BD00BF000C0040A1
:103D1000EC11002080B500AF4FF08040022104F08C
:103D200061FB0346012B08D14FF08040022104F0D3
:103D300083FB1B4B1B69984731E04FF08040042107
:103D400004F050FB0346012B08D14FF080400421C2
:103D500004F072FB124B5B69984720E04FF0804003
:103D6000082104F03FFB0346012B08D14FF08040AF
:103D7000082104F061FB0A4B9B6998470FE04FF064
:103D80008040102104F02EFB0346012B07D14FF099
:103D90008040102104F050FB014BDB69984780BD47
:103DA000EC11002080B500AF1D48022104F01AFB81
:103DB0000346012B07D11A48022104F03DFB194BA1
:103DC0001B6A98472BE01648042104F00BFB0346BE
:103DD000012B07D11248042104F02EFB114B5B6A22
:103DE00098471CE00E48082104F0FCFA0346012B1A
:103DF00007D10B48082104F01FFB0A4B9B6A984728
:103E00000DE00748102104F0EDFA0346012B06D11E
:103E10000348082104F010FB024BDB6A984780BD81
:103E200000040040EC11002080B500AF1D480221C5
:103E300004F0D8FA0346012B07D11A48022104F0F6
:103E4000FBFA194B1B6B98472BE01648042104F032
:103E5000C9FA0346012B07D11248042104F0ECFAF9
:103E6000114B5B6B98471CE00E48082104F0BAFA2E
:103E70000346012B07D10D48082104F0DDFA0A4B57
:103E80009B6B98470DE00748102104F0ABFA0346FE
:103E9000012B06D10348102104F0CEFA024BDB6B54
:103EA000984780BD00080040EC110020000400404D
:103EB00080B582B000AF78607B68424A93426DD093
:103EC000404A934216D8404A93423CD03E4A9342DD
:103ED00006D8B3F1804F2CD03C4A93422ED06DE0EF
:103EE0003B4A934239D03B4A93423BD03A4A9342B1
:103EF0002ED063E0394A934239D0384A934209D8E8
:103F0000374A934254D0374A93420DD0364A9342AF
:103F100049D053E0354A934234D0354A934237D0A2
:103F2000344A934228D049E001200121FDF7BCFC2E
:103F300044E001200121FDF799FC3FE0022001212E
:103F4000FDF794FC3AE004200121FDF78FFC35E0F9
:103F500008200121FDF78AFC30E010200121FDF747
:103F600085FC2BE020200121FDF780FC26E00220CB
:103F70000121FDF799FC21E04FF480300121FDF78C
:103F800093FC1BE04FF400300121FDF78DFC15E0A0
:103F90004FF480200121FDF787FC0FE04020012134
:103FA000FDF764FC0AE080200121FDF75FFC05E0DD
:103FB0004FF480700121FDF759FC00BF0837BD4662
:103FC00080BD00BF00180040000800400004004011
:103FD0000010004000140040000C004000040140AC
:103FE0000020004000000140001C0040004401404F
:103FF000004801400040014080B58CB002AFF8603D
:10400000B9603B601346FB80FB68002B09D14FF081
:10401000140383F31188BFF36F8FBFF34F8FBB611E
:10402000FEE73B6B042B09D94FF0140383F311888F
:10403000BFF36F8FBFF34F8F7B61FEE7FB8818469E
:10404000B96B00F057FD38623B6A002B78D03B6AB1
:104050001A6BFB8803F18043013B9B001344FB6117
:10406000FB6923F00703FB61FB6903F00703002BE7
:1040700009D04FF0140383F31188BFF36F8FBFF3A0
:104080004F8F3B61FEE7FB880093386AB9683A6B53
:10409000FB6B00F02FFCF869F9683A6802F0A6F8AB
:1040A00002463B6A1A607B6B002B02D07B6B3A6A3C
:1040B0001A6002F073F9314B1B685A1C2F4B1A60BF
:1040C0002F4B1B68002B09D12D4B3A6A1A602B4BE2
:1040D0001B68012B0FD100F05FFC0CE0294B1B6823
:1040E000002B08D1264B1B68DA6A3B6B9A4202D838
:1040F000234B3A6A1A60244B1B685A1C224B1A60E5
:10410000214B1A683B6A1A643B6ADB6A01229A40B7
:104110001E4B1B681A431D4B1A603B6ADA6A134632
:104120009B0013449B001A4A1A443B6A043310460E
:10413000194601F03DF901237B6202F05DF902E0CE
:104140004FF0FF337B627B6A012B11D10D4B1B6853
:10415000002B0DD00A4B1B68DA6A3B6B9A4207D2E0
:104160000C4B4FF080521A60BFF34F8FBFF36F8F2D
:104170007B6A18462837BD4680BD00BFA4130020C7
:10418000CC120020B0130020C0130020AC1300207C
:10419000D012002004ED00E080B588B004AF002309
:1041A00000930023019300230293002303931948F3
:1041B000194982220023FFF71FFFF860FB68012BDB
:1041C00002D1FDF751FEF860FB68012B11D14FF0D1
:1041D000140383F31188BFF36F8FBFF34F8FBB605E
:1041E0000E4B01221A600E4B00221A6002F06EF88C
:1041F0000CE0FB68002B09D14FF0140383F3118806
:10420000BFF36F8FBFF34F8F7B60FEE71037BD4664
:1042100080BD00BFC148000854B60008B01300209C
:10422000A813002080B400AF044B1B685A1C034B3A
:104230001A60BD465DF8047B704700BFC4130020C0
:1042400080B584B000AF0023FB603E4B1B68002BA1
:1042500009D14FF0140383F31188BFF36F8FBFF3BD
:104260004F8F7B60FEE702F099F8364B1B685A1EB1
:10427000344B1A60334B1B68002B5BD1324B1B68ED
:10428000002B57D02EE0314BDB68DB68BB60BB688E
:104290001833184601F0E8F8BB680433184601F0FB
:1042A000E3F8BB68DB6A01229A40294B1B681A437A
:1042B000274B1A60BB68DA6A13469B0013449B00C5
:1042C000244A1A44BB6804331046194601F070F8BA
:1042D000BB68DA6A204B1B68DB6A9A4202D31F4B29
:1042E00001221A60194B1B68002BCCD11C4B1B6898
:1042F000002B11D00CE000F047F80346002B02D051
:10430000164B01221A60164B1B685A1E144B1A607A
:10431000134B1B68002BEED1104B1B68012B09D1EE
:104320000123FB600F4B4FF080521A60BFF34F8F99
:10433000BFF36F8F02F060F8FB6818461037BD4678
:1043400080BD00BFC4130020A4130020641300200C
:10435000AC130020D0120020CC120020B813002093
:10436000B413002004ED00E080B483B000AF054B2F
:104370001B687B607B6818460C37BD465DF8047B84
:10438000704700BFA813002080B586B000AF00239F
:104390007B61554B1B68002B40F09380534B1B688F
:1043A0005A1C524B1A60514B1B683B613B69002BF6
:1043B0001FD14F4B1B681B68002B09D04FF0140313
:1043C00083F31188BFF36F8FBFF34F8F3B60FEE71E
:1043D000474B1B68FB60474B1A68454B1A60454BBF
:1043E000FA681A60444B1B685A1C434B1A6000F071
:1043F000C9FB424B1B683A699A424DD33C4B1B6840
:104400001B68002B01D1012300E00023002B04D006
:104410003A4B4FF0FF321A603EE0354B1B68DB68C9
:10442000DB68BB60BB685B687B603A697B689A420B
:1044300003D2324B7A681A602EE0BB680433184608
:1044400001F012F8BB689B6A002B04D0BB681833DC
:10445000184601F009F8BB68DB6A01229A40284B34
:104460001B681A43264B1A60BB68DA6A13469B0026
:1044700013449B00234A1A44BB6804331046194670
:1044800000F096FFBB68DA6A1F4B1B68DB6A9A4232
:1044900001D301237B61B1E71B4B1B68DA6A194921
:1044A00013469B0013449B000B441B68012B01D94E
:1044B00001237B61154B1B68002B09D1FEF7E4FC3F
:1044C00006E0124B1B685A1C104B1A60FEF7DCFC0E
:1044D0000F4B1B68002B01D001237B617B691846C1
:1044E0001837BD4680BD00BFC4130020A8130020AC
:1044F0005C13002060130020BC130020F00B002090
:10450000AC130020D0120020CC120020B4130020E5
:10451000B813002080B487B000AF264B1B68002B77
:1045200003D0254B01221A603EE0234B00221A6083
:10453000224B1B68FB60FB68B3FA83F3FB72FB7AC8
:10454000C3F11F037B611E497A6913469B00134424
:104550009B000B441B68002B09D14FF0140383F31D
:104560001188BFF36F8FBFF34F8F7B60FEE77A69CF
:1045700013469B0013449B00114A13443B613B6963
:104580005B685A683B695A603B695A683B69083303
:104590009A4204D13B695B685A683B695A603B693F
:1045A0005B68DA68074B1A601C37BD465DF8047B10
:1045B000704700BFC4130020B8130020AC130020C4
:1045C000D0120020CC12002080B584B000AF7860FB
:1045D00039607B68002B09D14FF0140383F31188F5
:1045E000BFF36F8FBFF34F8FBB60FEE7194B1B68A4
:1045F00018337868194600F0FFFE164B1B68043329
:10460000184600F031FF0346002B0BD1114B1B68FD
:10461000DB6A012202FA03F3DA430F4B1B681A40EC
:104620000D4B1A603B68B3F1FF3F07D1094B1B6884
:1046300004330A48194600F0BBFE07E0084B1A682D
:104640003B681344FB60F86800F01EFA1037BD4663
:1046500080BD00BFCC120020AC13002090130020BE
:10466000A813002080B584B000AF786039607B6803
:10467000002B09D14FF0140383F31188BFF36F8F20
:10468000BFF34F8FBB60FEE7134B1B68183378688E
:10469000194600F08DFE104B1B680433184600F0DD
:1046A000E3FE0346002B0BD10B4B1B68DB6A012298
:1046B00002FA03F3DA43094B1B681A40074B1A60EE
:1046C000074B1A683B681344FB60F86800F0DCF99C
:1046D0001037BD4680BD00BFCC120020AC130020B7
:1046E000A813002080B586B000AF78607B68DB68D7
:1046F000DB683B613B69002B09D14FF0140383F366
:104700001188BFF36F8FBFF34F8FFB60FEE73B69EC
:104710001833184600F0A8FE1D4B1B68002B1CD157
:104720003B690433184600F09FFE3B69DB6A0122B7
:104730009A40184B1B681A43164B1A603B69DA6A99
:1047400013469B0013449B00134A1A443B690433ED
:104750001046194600F02CFE05E03B6918330F485F
:10476000194600F025FE3B69DA6A0D4B1B68DB6ACF
:104770009A4205D901237B610A4B01221A6001E0AC
:1047800000237B617B6918461837BD4680BD00BF9A
:10479000C4130020AC130020D012002064130020AA
:1047A000CC120020B813002080B485B000AF786030
:1047B0007B68002B09D14FF0140383F31188BFF3FA
:1047C0006F8FBFF34F8FFB60FEE7064B1A687B6865
:1047D0001A60054B1A687B685A601437BD465DF84D
:1047E000047B7047BC130020A813002080B586B05E
:1047F00000AF786039607B68002B09D14FF014035B
:1048000083F31188BFF36F8FBFF34F8FFB60FEE719
:104810003B68002B09D14FF0140383F31188BFF3D9
:104820006F8FBFF34F8FBB60FEE701F0B7FD1C4BEE
:104830001B683B613B681B68B3F1FF3F02D100235B
:104840007B6126E07B681A68164B1B689A4207D08A
:104850007B685A683B699A4202D801237B6118E061
:104860007B685B683A69D21A3B681B689A420ED231
:104870003B681A687B6859683B69CB1A1A443B68E5
:104880001A607868FFF790FF00237B6101E0012345
:104890007B6101F0B1FD7B6918461837BD4680BDCC
:1048A000A8130020BC13002080B400AF034B0122EA
:1048B0001A60BD465DF8047B704700BFB813002046
:1048C00080B582B000AF786000F0A4F8074B1B6899
:1048D000012B07D9064B4FF080521A60BFF34F8F60
:1048E000BFF36F8FFCF7BCFEEEE700BFD0120020D5
:1048F00004ED00E080B586B000AFF860B9607A6082
:104900003B6000237B6112E0BA687B6913441A782C
:10491000F9687B690B4430331A71BA687B691344B8
:104920001B78002B00D105E07B6901337B617B693B
:10493000092BE9D9FB68002283F83D207B68042B12
:1049400001D904237B60FB687A68DA62FB687A68C5
:104950009A64FB680022DA64FB680433184600F0AE
:104960001BFDFB681833184600F016FDFB68FA685B
:104970001A617B68C3F10502FB689A61FB68FA68FB
:104980005A62FB6800221A65FB68002283F85420F3
:104990001837BD4680BD00BF80B582B000AF002390
:1049A0007B600CE07A6813469B0013449B00114A1D
:1049B0001344184600F0D0FC7B6801337B607B68B1
:1049C000042BEFD90C4800F0C7FC0C4800F0C4FCE5
:1049D0000B4800F0C1FC0B4800F0BEFC0A4800F098
:1049E000BBFC0A4B044A1A60094B044A1A60083798
:1049F000BD4680BDD0120020341300204813002093
:104A00006413002078130020901300205C13002012
:104A10006013002080B582B000AF28E0FFF702FCF1
:104A2000164B1B68002B14BF00230123DBB27B60F5
:104A3000FFF706FC7B68002B19D101F0AFFC0F4B90
:104A4000DB68DB683B603B680433184600F00CFD14
:104A50000B4B1B685A1E0A4B1A600A4B1B685A1EE6
:104A6000084B1A6001F0C8FC386800F07BF8054B71
:104A70001B68002BD2D10837BD4680BD78130020BB
:104A8000A41300208C13002080B582B000AF7860A2
:104A9000134B1B687A685A60124B1B687A689A42FB
:104AA00009D2114B1A680E4B1B6804331046194685
:104AB00000F0A2FC10E00D4B1A68094B1B68043390
:104AC0001046194600F098FC094B1B687A689A4218
:104AD00002D2074B7A681A600837BD4680BD00BF16
:104AE000CC120020A8130020601300205C130020CB
:104AF000F00B002080B584B000AF03463960FB8026
:104B00003B68002B06D1FB889B00184602F026F874
:104B1000034600E03B68BB60BB68002B0ED058200A
:104B200002F01CF8F860FB68002B03D0FB68BA6841
:104B30001A6305E0B86802F057F801E00023FB6053
:104B4000FB68002B08D0FB681A6BFB889B001046A3
:104B5000A5211A4604F034FDFB6818461037BD46FF
:104B600080BD00BF80B582B000AF78607B681B6BF2
:104B7000184602F039F8786802F036F80837BD4672
:104B800080BD00BF80B483B000AF0E4B1B681B68B4
:104B9000002B01D1012300E00023002B04D00A4B9D
:104BA0004FF0FF321A6008E0064B1B68DB68DB68D9
:104BB0007B607B685A68044B1A600C37BD465DF811
:104BC000047B70475C130020F00B002080B483B09E
:104BD00000AF0B4B1B68002B02D101237B6008E068
:104BE000084B1B68002B02D102237B6001E00023ED
:104BF0007B607B6818460C37BD465DF8047B7047C8
:104C0000B0130020C413002080B584B000AF7860DA
:104C10007B68FB607B68002B62D0FB68DA6A324BF2
:104C20001B68DB6A9A425BD2FB689B69002B06DB40
:104C30002D4B1B68DB6AC3F10502FB689A61FB68B8
:104C40005969FB68DA6A13469B0013449B00274AA4
:104C50001344994201D1012300E00023002B3AD0F4
:104C6000FB680433184600F0FFFB0346002B15D108
:104C7000FB68DA6A1D4913469B0013449B000B44F2
:104C80001B68002B0AD1FB68DB6A012202FA03F3DE
:104C9000DA43174B1B681A40154B1A60124B1B68FE
:104CA000DA6AFB68DA62FB68DB6A01229A40104B21
:104CB0001B681A430E4B1A60FB68DA6A13469B00A6
:104CC00013449B00094A1A44FB68043310461946F2
:104CD00000F06EFB04E0044B1B68DA6AFB68DA62E2
:104CE0001037BD4680BD00BFCC120020D01200207E
:104CF000AC13002080B586B000AF78607B683B6164
:104D000000237B617B68002B5DD03B69DB6C002B53
:104D100009D14FF0140383F31188BFF36F8FBFF3F2
:104D20004F8FFB60FEE73B69DB6C5A1E3B69DA6420
:104D30003B69DA6A3B699B6C9A4244D03B69DB6C05
:104D4000002B40D13B690433184600F08DFB03462D
:104D5000002B15D13B69DA6A1D4913469B001344A9
:104D60009B000B441B68002B0AD13B69DB6A0122C4
:104D700002FA03F3DA43174B1B681A40154B1A600B
:104D80003B699A6C3B69DA623B69DB6AC3F10502F5
:104D90003B699A613B69DB6A01229A400D4B1B68B3
:104DA0001A430C4B1A603B69DA6A13469B001344A2
:104DB0009B00074A1A443B6904331046194600F029
:104DC000F7FA01237B617B6918461837BD4680BD21
:104DD000D0120020AC13002080B400AF074B1B683A
:104DE000002B04D0054B1B68DA6C0132DA64034BEC
:104DF0001B681846BD465DF8047B7047CC12002046
:104E000080B584B000AFF860B9607A60FB68002BB1
:104E100001D101231EE0FB6800225A60FB680022DA
:104E20009A60FB68BA681A61FB687A685A61FB6825
:104E300000221A73B868796804F054F803461A46D9
:104E4000FB681A60FB681B6818460021BA6804F00A
:104E5000B7FB022318461037BD4680BD80B485B02D
:104E600000AF786039607B681B7B002B01D1002389
:104E70003DE00023FB6018E03A68FB6813447A6861
:104E800011687A6892680A4412781A707B681A6806
:104E90007B689B68134400221A707B689B685A1CCD
:104EA0007B689A60FB680133FB607B685A69FB682A
:104EB0009A42E1D87B689A687B681B69796849697E
:104EC00001FB03F39A4202D37B6800229A607B685D
:104ED0005A687B689B689A4204D17B6800221A73E7
:104EE000012304E07B6802221A737B681B7B18464F
:104EF0001437BD465DF8047B704700BF0FB490B413
:104F000082B000AF07F114043C603B691B7B032BAC
:104F100001D1032333E000237B600EE03B69196875
:104F20003A695368581C50600B4439687A680A44DF
:104F300012781A707B6801337B603B695A697B6821
:104F40009A42EBD83B695A683B691B6939694969E0
:104F500001FB03F39A4202D33B6900225A603B698A
:104F60005A683B699B689A4204D13B6903221A73D1
:104F7000012304E03B6902221A733B691B7B18463C
:104F80000837BD4690BC04B0704700BF80B483B002
:104F900000AF78607B681B7B18460C37BD465DF818
:104FA000047B704790B583B002AF244B9A78234BB3
:104FB000DB78104619464FF4E132FCF7CFFC204B6A
:104FC00000932048012100220023FCF781FF0246C4
:104FD0001D4B1A601D4B00931D48642101220023C4
:104FE000FCF776FF02461B4B1A60174B1B684FF00D
:104FF000FF3200921846032100220023FCF7A4FF91
:10500000144B1C68FFF7B0F903464FF0FF320092D3
:10501000204601211A460023FCF796FF0E48FEF7B2
:10502000ADFC0E48FEF7AAFC0D48FEF7A7FC0D48A4
:105030000721FEF7A3FC0437BD4690BDF40B00200A
:105040008150000834B90008C8130020D950000866
:1050500040B90008CC13002048B9000850B9000836
:1050600054B900085CB9000880B400AF034B1B784A
:105070001846BD465DF8047B704700BFF40B002066
:1050800080B584B000AF786007F10F03104819466F
:105090000122FCF705FE0346002B12D0FB7B1B2BE5
:1050A0000BD0FB7B5B2B08D0FB7B3F2B05D0FB7B26
:1050B000362B02D0FB7B632B03D1064B01221A70E7
:1050C00002E0044B00221A701037BD4680BD00BFBD
:1050D00000140140F40B002090B585B002AF786059
:1050E0000948FEF74BFC094B1C68FFF73DF90346E6
:1050F00000220092204601211A460023FCF724FFDB
:105100000C37BD4690BD00BF64B90008C81300202D
:1051100080B487B000AF7860396000237B610023E2
:105120003B610023FB6000237B6176E07B69012209
:1051300002FA03F33B613B681A683B691340FB606A
:10514000FA683B699A4265D17B681A687B695B00A3
:10515000032101FA03F3DB431A407B681A607B6882
:105160001A683B681B7919467B695B0001FA03F3F7
:105170001A437B681A603B681B79012B03D03B689C
:105180001B79022B2ED17B689A687B695B00032117
:1051900001FA03F3DB431A407B689A607B689A68E4
:1051A0003B685B7919467B695B0001FA03F31A439C
:1051B0007B689A607B685A687B699BB2012101FA1F
:1051C00003F3DB431A407B685A607B685A683B688C
:1051D0009B7919467B699BB201FA03F39BB21A4390
:1051E0007B685A607B68DA687B699BB25B0003214D
:1051F00001FA03F3DB431A407B68DA607B68DA6804
:105200003B68DB7919467B695B0001FA03F31A43BB
:105210007B68DA607B6901337B617B690F2B85D901
:105220001C37BD465DF8047B704700BF80B485B075
:1052300000AF78600B467B800023FB737B681A69A4
:105240007B881340002B02D00123FB7301E0002375
:10525000FB73FB7B18461437BD465DF8047B704733
:1052600080B485B000AF78600B467B800023FB7371
:105270007B685A697B881340002B02D00123FB73A3
:1052800001E00023FB73FB7B18461437BD465DF835
:10529000047B704780B483B000AF78600B467B809E
:1052A0007B687A881A830C37BD465DF8047B7047AB
:1052B00080B483B000AF78600B467B807B687A88CF
:1052C0005A830C37BD465DF8047B704780B485B0C7
:1052D00000AF786013460A467A807B700023FB603B
:1052E0000023BB607A787B8803F007039B0002FAF7
:1052F00003F3FB607B88DB089BB21A467B88DB08E4
:105300009BB219467B68083153F821107B8803F063
:1053100007039B000F2000FA03F3DB4319407B686F
:10532000083243F822107B88DB089BB21A467B6860
:10533000083253F82220FB681343BB607B88DB08EC
:105340009BB21A467B680832B96843F822101437BA
:10535000BD465DF8047B704780B483B000AF7860D1
:105360007B6803F108027B685A607B684FF0FF326C
:105370009A607B6803F108027B68DA607B6803F15E
:1053800008027B681A617B6800221A600C37BD46F0
:105390005DF8047B704700BF80B483B000AF7860D5
:1053A0007B6800221A610C37BD465DF8047B7047AC
:1053B00080B485B000AF786039607B685B68FB6063
:1053C0003B68FA685A60FB689A683B689A60FB68B9
:1053D0009B683A685A60FB683A689A603B687A68EA
:1053E0001A617B681B685A1C7B681A601437BD46BB
:1053F0005DF8047B704700BF80B485B000AF786073
:1054000039603B681B68BB60BB68B3F1FF3F03D1E9
:105410007B681B69FB600CE07B680833FB6002E083
:10542000FB685B68FB60FB685B681A68BB689A4254
:10543000F6D9FB685A683B685A603B685B683A6813
:105440009A603B68FA689A60FB683A685A603B6801
:105450007A681A617B681B685A1C7B681A6014376B
:10546000BD465DF8047B704780B485B000AF7860BE
:105470007B681B69FB607B685B687A6892689A60EE
:105480007B689B687A6852685A60FB685A687B68D8
:105490009A4203D17B689A68FB685A607B68002255
:1054A0001A61FB681B685A1EFB681A60FB681B6860
:1054B00018461437BD465DF8047B704780B500AFD1
:1054C000154B154AD2F8882042F47002C3F88820A0
:1054D000124B124A126842F001021A600F4B00226E
:1054E0009A600E4A0D4B1B6823F0847323F48033BB
:1054F00013600A4B0A4A5A60084B084A126822F4A1
:1055000080221A60054B0022DA6000F087F8024B17
:105510004FF000629A6080BD00ED00E0003802406C
:105520001030002480B487B000AF00233B6100231B
:105530007B610223FB600023BB6002237B60324B54
:105540009B6803F00C033B613B69042B07D0082BDD
:1055500009D0002B3FD12D4B2D4A1A603FE02B4B39
:105560002C4A1A603BE0284B5B6803F480039B0DD8
:10557000BB60254B5B6803F03F037B60BB68002B7F
:105580000DD0244A7B68B2FBF3F21F4B596847F6F3
:10559000C0730B409B0903FB02F37B610CE01C4AC8
:1055A0007B68B2FBF3F2184B596847F6C0730B40A7
:1055B0009B0903FB02F37B61134B5B6803F44033ED
:1055C0001B0C01335B00FB607A69FB68B2FBF3F2F2
:1055D0000E4B1A6003E00D4B0D4A1A6000BF0A4BD8
:1055E0009B6803F0F0031B090B4AD35CDBB23B6101
:1055F000064B1A683B69DA40044B1A601C37BD46FB
:105600005DF8047B704700BF00380240F80B0020B3
:105610000024F40000127A00FC0B002080B483B058
:1056200000AF00237B6000233B60354B344A126897
:1056300042F480321A60324B1B6803F400333B6043
:105640007B6801337B603B68002B03D17B68B3F53B
:10565000A06FF0D12A4B1B6803F40033002B02D05B
:1056600001233B6001E000233B603B68012B42D1FA
:10567000234B234A126C42F080521A64214B214A78
:10568000126842F480421A601D4B1D4A92689A606B
:105690001B4B1B4A926842F400429A60184B184A0E
:1056A000926842F4A0529A60154B174A5A60144B04
:1056B000134A126842F080721A6000BF104B1B68D8
:1056C00003F00073002BF9D0104B40F205621A6012
:1056D0000B4B0B4A926822F003029A60084B084A6F
:1056E000926842F002029A6000BF054B9B6803F08B
:1056F0000C03082BF9D10C37BD465DF8047B7047CD
:10570000003802400070004008544007003C02404E
:1057100080B485B000AF78600B4B1B68002B02D1C2
:10572000094B0A4A1A60084B1B68FB60064B1A6853
:105730007B681A44044B1A60FB6818461437BD4650
:105740005DF8047B704700BFD013002074B60020C2
:1057500080B582B000AF154A154BD31A9B103B6041
:1057600000237B6007E0124B7A6853F82230984799
:105770007B6801337B607A683B689A42F3D30D4AB9
:105780000D4BD31A9B103B6000237B6007E00A4B54
:105790007A6853F8223098477B6801337B607A68D7
:1057A0003B689A42F3D30837BD4680BD20100020E5
:1057B000201000202C1000202010002080B584B084
:1057C00000AF786039607B68FB60FB68002B09D113
:1057D0004FF0140383F31188BFF36F8FBFF34F8F24
:1057E000BB60FEE700F0DAFDFB681A68FB68DB6B64
:1057F000F968096C01FB03F31A44FB685A60FB6803
:1058000000229A63FB681A68FB689A60FB681A6852
:10581000FB68DB6B013BF968096C01FB03F31A447D
:10582000FB68DA60FB684FF0FF325A64FB684FF0A8
:10583000FF329A643B68002B14D1FB681B69002B74
:105840001AD0FB6810331846FEF74CFF0346012BB5
:1058500012D10D4B4FF080521A60BFF34F8FBFF340
:105860006F8F09E0FB6810331846FFF775FDFB6882
:1058700024331846FFF770FD00F0BEFD01231846E3
:105880001037BD4680BD00BF04ED00E080B58AB092
:1058900000AFF860B9601346FB7100233B62FB6800
:1058A000002B09D14FF0140383F31188BFF36F8FDE
:1058B000BFF34F8F7B61FEE7BB68002B02D1002353
:1058C0007B6205E0FB68BA6802FB03F301337B628D
:1058D0007B6A5433184601F041F9F861FB69002BEB
:1058E0001DD0FB69BB61BB68002B03D1BB69BA69E2
:1058F0001A6004E0FB6903F15402BB691A60BB69DA
:10590000FA68DA63BB69BA681A64B8690121FFF7FB
:1059100055FFBB69FA7983F85020BB693B623B6A4B
:10592000002B09D14FF0140383F31188BFF36F8F5D
:10593000BFF34F8F3B61FEE73B6A18462837BD46F1
:1059400080BD00BF80B58EB000AFF860B9607A60EE
:105950003B6000237B63FB683B633B6B002B09D1FF
:105960004FF0140383F31188BFF36F8FBFF34F8F92
:10597000BB62FEE7BB68002B03D13B6B1B6C002BAB
:1059800001D1012300E00023002B09D14FF01403C3
:1059900083F31188BFF36F8FBFF34F8F7B62FEE7F6
:1059A0003B68022B03D13B6BDB6B012B01D1012345
:1059B00000E00023002B09D14FF0140383F311887A
:1059C000BFF36F8FBFF34F8F3B62FEE7FFF7FEF829
:1059D0000346002B02D17B68002B01D1012300E09C
:1059E0000023002B09D14FF0140383F31188BFF378
:1059F0006F8FBFF34F8FFB61FEE700F0CFFC3B6B77
:105A00009A6B3B6BDB6B9A4202D33B68022B29D12A
:105A1000386BB9683A6800F087FAF8623B6B5B6AEA
:105A2000002B10D03B6B24331846FEF75BFE034679
:105A3000012B13D13D4B4FF080521A60BFF34F8FB3
:105A4000BFF36F8F0AE0FB6A002B07D0374B4FF094
:105A500080521A60BFF34F8FBFF36F8F00F0CCFC02
:105A600001235FE07B68002B03D100F0C5FC00231D
:105A700058E07B6B002B06D107F114031846FEF7A4
:105A800093FE01237B6300F0B7FCFEF7CBFB00F035
:105A900085FC3B6B5B6CB3F1FF3F02D13B6B00229B
:105AA0005A643B6B9B6CB3F1FF3F02D13B6B00220E
:105AB0009A6400F0A1FC07F114023B1D1046194640
:105AC000FEF794FE0346002B24D1386B00F022FB36
:105AD0000346002B18D03B6B03F110027B68104685
